:100000000C942A000C94C1020C940D030C94E80289
:100010000C9447000C9447000C9447000C94470044
:100020000C9447000C9447000C9447000C947F03F9
:100030000C9447000C9447000C9447000C94470024
:100040000C9447000C9447000C9447000C94470014
:100050000C94470011241FBECFE5D8E0DEBFCDBF12
:1000600010E0A0E6B0E0E4E6FCE002C005900D92EE
:10007000A037B107D9F720E0A0E7B0E001C01D929A
:10008000A437B207E1F70E94D1010C9430060C941A
:100090000000682F70E080E090E00E94F20420E011
:1000A00030E040E251E40E948E0520E030E044E37D
:1000B00053E40E94130420E030E040E250E40E9448
:1000C000A7030C94480343E065E083E00E94EA0143
:1000D0000E94F9000E94D80162E370E080E090E0A5
:1000E0000E9431038AE50E9449000C94770380E066
:1000F0000E94DF01BC0180E090E00E94F0042BE050
:100100003DE244E35EE30E948E056B017C010E94A8
:10011000C104862F0E94490086E690E00E949E015D
:10012000C701B6010E9485040E94B0012FEF81EE45
:1001300094E0215080409040E1F700C000000E9410
:10014000CE01D5CFEF92FF920F931F93CF93DF9302
:1001500090E6E92E90E0F92EC0E0D0E0082F10E004
:10016000F70161917F01A8010C2E02C055954795BA
:100170000A94E2F7417081E00E9457022196C43050
:10018000D10571F7DF91CF911F910F91FF90EF9003
:100190000895CF93C82F40E063E080E00E945702AB
:1001A00041E062E080E00E9457028C2F82958F70C0
:1001B0000E94A20040E062E080E00E9457028FE1CE
:1001C0009EE40197F1F700C0000040E063E080E0AA
:1001D0000E94570241E062E080E00E9457028C2FAB
:1001E0008F700E94A20040E062E080E0CF910C940A
:1001F00057022FEF88EF95E1215080409040E1F7C2
:1002000000C0000043E062E080E00E94EA0140E0BC
:1002100062E080E00E94570243E063E080E00E94D9
:10022000EA0143E060E081E00E94EA0143E061E02E
:1002300081E00E94EA0143E062E081E00E94EA017D
:1002400043E064E081E00E94EA0183E00E94C9008B
:100250008FE19EE40197F1F700C0000083E00E9467
:10026000C9008FE19EE40197F1F700C0000083E030
:100270000E94C9008FE99FE00197F1F700C00000DC
:1002800082E00E94C9008FE19EE40197F1F700C06F
:10029000000088E20E94C9008FE19EE40197F1F717
:1002A00000C0000081E00E94C9008FE19EE4019738
:1002B000F1F700C000008FE00E94C9008FE19EE4CA
:1002C0000197F1F700C0000086E00E94C9008FE1AD
:1002D0009EE40197F1F700C000000895CF93C82F66
:1002E00041E063E080E00E94570241E062E080E08C
:1002F0000E9457028C2F82958F700E94A20040E0CE
:1003000062E080E00E9457028FE19EE40197F1F7DE
:1003100000C0000041E063E080E00E94570241E03D
:1003200062E080E00E9457028C2F8F700E94A20032
:1003300040E062E080E0CF910C945702CF93DF93CE
:10034000EC018991882349F00E946E018FE19EE4BF
:100350000197F1F700C00000F4CFDF91CF9108952D
:10036000CF93DF93CDB7DEB72A970FB6F894DEBFF1
:100370000FBECDBF4AE0BE016F5F7F4FC9010E9433
:10038000FB05CE0101960E949E012A960FB6F894B5
:10039000DEBF0FBECDBFDF91CF91089581E00C94F9
:1003A000C9000E9463000E94770080E090E00895F9
:1003B00080E487B987E086B93598379A089597B170
:1003C000907E892B87B9369A349BFECF84B195B144
:1003D00093700895683008F069C0813001F130F001
:1003E0008230A9F1833009F44AC00895423051F4B3
:1003F0002AB381E090E001C0880F6A95EAF7809502
:1004000082230BC0433009F051C02AB381E090E051
:1004100001C0880F6A95EAF7822B8ABB08954230A3
:1004200051F427B381E090E001C0880F6A95EAF7A4
:10043000809582230AC04330C9F527B381E090E05C
:1004400001C0880F6A95EAF7822B87BB0895423076
:1004500051F424B381E090E001C0880F6A95EAF777
:10046000809582230AC0433009F524B381E090E0EF
:1004700001C0880F6A95EAF7822B84BB0895423049
:1004800051F421B381E090E001C0880F6A95EAF74A
:10049000809582230AC0433049F421B381E090E083
:1004A00001C0880F6A95EAF7822B81BB08958130DD
:1004B00001F130F08230A9F1833009F44AC0089587
:1004C00041110AC02BB381E090E001C0880F6A950A
:1004D000EAF7809582230BC0413009F051C02BB35D
:1004E00081E090E001C0880F6A95EAF7822B8BBB10
:1004F000089541110AC028B381E090E001C0880F3F
:100500006A95EAF7809582230AC04130C9F528B37D
:1005100081E090E001C0880F6A95EAF7822B88BBE2
:10052000089541110AC025B381E090E001C0880F11
:100530006A95EAF7809582230AC0413009F525B310
:1005400081E090E001C0880F6A95EAF7822B85BBB5
:10055000089541110AC022B381E090E001C0880FE4
:100560006A95EAF7809582230AC0413049F422B3A4
:1005700081E090E001C0880F6A95EAF7822B82BB88
:1005800008951F920F920FB60F9211242F933F934D
:100590004F935F936F937F938F939F93AF93BF938B
:1005A000EF93FF93E0917000F09171000995FF9136
:1005B000EF91BF91AF919F918F917F916F915F91DB
:1005C0004F913F912F910F900FBE0F901F90189554
:1005D0001F920F920FB60F9211242F933F934F93B8
:1005E0005F936F937F938F939F93AF93BF93EF939B
:1005F000FF93E0E0F0E00995FF91EF91BF91AF919B
:100600009F918F917F916F915F914F913F912F912A
:100610000F900FBE0F901F9018951F920F920FB65C
:100620000F9211242F933F934F935F936F937F9378
:100630008F939F93AF93BF93EF93FF930E94E80232
:10064000FF91EF91BF91AF919F918F917F916F91AA
:100650005F914F913F912F910F900FBE0F901F9080
:100660001895982F872F762F66270E94F0049B01FC
:10067000AC0160E074E284E79BE40E9413040E94F2
:10068000C104709365006093640077BD66BD0895F2
:100690008F929F92AF92BF92CF92DF92EF92FF9292
:1006A0004B015C01609164007091650080E090E016
:1006B0000E94F0046B017C0120E030E048EC52E441
:1006C000C501B4010E9413049B01AC01C701B6012E
:1006D0000E948E050E94C1047BBD6ABDFF90EF9011
:1006E000DF90CF90BF90AF909F908F90089582E859
:1006F0008FBD88E18EBD8EB584608EBD08951F923A
:100700000F920FB60F9211242F933F934F935F9345
:100710006F937F938F939F93AF93BF93EF93FF93C9
:10072000E0917200F09173000995FF91EF91BF91F4
:10073000AF919F918F917F916F915F914F913F9179
:100740002F910F900FBE0F901F9018955058BB27F8
:10075000AA270E94BE030C9454050E94460538F057
:100760000E944D0520F039F49F3F19F426F40C94B3
:1007700033050EF4E095E7FB0C942D05E92F0E945C
:10078000650558F3BA17620773078407950720F0C9
:1007900079F4A6F50C9487050EF4E0950B2EBA2F8C
:1007A000A02D0B01B90190010C01CA01A001112477
:1007B000FF27591B99F0593F50F4503E68F11A1623
:1007C000F040A22F232F342F4427585FF3CF4695B4
:1007D00037952795A795F0405395C9F77EF41F16D6
:1007E000BA0B620B730B840BBAF09150A1F0FF0FA0
:1007F000BB1F661F771F881FC2F70EC0BA0F621F8C
:10080000731F841F48F4879577956795B795F7957B
:100810009E3F08F0B0CF9395880F08F09927EE0F10
:100820009795879508950E9427040C9454050E947B
:100830004D0558F00E94460540F029F45F3F29F02D
:100840000C942D0551110C9488050C9433050E94CD
:10085000650568F39923B1F3552391F3951B550B67
:10086000BB27AA2762177307840738F09F5F5F4F83
:10087000220F331F441FAA1FA9F335D00E2E3AF0C2
:10088000E0E832D091505040E695001CCAF72BD0DA
:10089000FE2F29D0660F771F881FBB1F261737072B
:1008A0004807AB07B0E809F0BB0B802DBF01FF275D
:1008B00093585F4F3AF09E3F510578F00C942D0508
:1008C0000C9488055F3FE4F3983ED4F386957795C2
:1008D0006795B795F7959F5FC9F7880F911D969516
:1008E000879597F90895E1E0660F771F881FBB1F72
:1008F000621773078407BA0720F0621B730B840B1F
:10090000BA0BEE1F88F7E0950895BEE304D008F413
:1009100090E80895BFE322273327A9010E946D05BF
:1009200060F19F5748F1B91740F1BFE3B91B992710
:10093000B8503AF4660F771F881F991FB395D2F30A
:1009400016C0B8504AF0232F342F452F562F672F4B
:10095000782F8827B850BAF7B85F49F08695779511
:1009600067955795479537952795BA95B9F716F432
:100970000E94360588940895889460E070E0CB0169
:1009800008950E946D0588F09F5798F0B92F992718
:10099000B751B0F0E1F0660F771F881F991F1AF06A
:1009A000BA95C9F714C0B13091F00E948705B1E043
:1009B00008950C948705672F782F8827B85F39F042
:1009C000B93FCCF3869577956795B395D9F73EF403
:1009D00090958095709561957F4F8F4F9F4F0895AB
:1009E000E89409C097FB3EF49095809570956195C9
:1009F0007F4F8F4F9F4F9923A9F0F92F96E9BB277F
:100A00009395F695879577956795B795F111F8CFFA
:100A1000FAF4BB0F11F460FF1BC06F5F7F4F8F4F65
:100A20009F4F16C0882311F096E911C0772321F05B
:100A30009EE8872F762F05C0662371F096E8862FF3
:100A400070E060E02AF09A95660F771F881FDAF74A
:100A5000880F9695879597F9089597F99F6780E88D
:100A600070E060E008959FEF80EC08959095809588
:100A70007095609550954095309521953F4F4F4F1B
:100A80005F4F6F4F7F4F8F4F9F4F089500240A9401
:100A90001616170618060906089500240A94121659
:100AA0001306140605060895092E0394000C11F48C
:100AB000882352F0BB0F40F4BF2B11F460FF04C039
:100AC0006F5F7F4F8F4F9F4F089557FD9058440F92
:100AD000551F59F05F3F71F04795880F97FB991F9D
:100AE00061F09F3F79F0879508951216130614065A
:100AF000551FF2CF4695F1DF08C0161617061806E7
:100B0000991FF1CF86957105610508940895E894C1
:100B1000BB2766277727CB0197F908950E94A10587
:100B20000C9454050E94460538F00E944D0520F0B3
:100B3000952311F00C942D050C94330511240C947D
:100B400088050E94650570F3959FC1F3950F50E0ED
:100B5000551F629FF001729FBB27F00DB11D639F6F
:100B6000AA27F00DB11DAA1F649F6627B00DA11D15
:100B7000661F829F2227B00DA11D621F739FB00DBB
:100B8000A11D621F839FA00D611D221F749F33272B
:100B9000A00D611D231F849F600D211D822F762FC4
:100BA0006A2F11249F5750409AF0F1F088234AF0A1
:100BB000EE0FFF1FBB1F661F771F881F915050400D
:100BC000A9F79E3F510580F00C942D050C948805E3
:100BD0005F3FE4F3983ED4F3869577956795B79594
:100BE000F795E7959F5FC1F7FE2B880F911D9695AE
:100BF000879597F90895BB274A3031F4992322F459
:100C0000BDE2909581959F4F0C940706BB27FB0191
:100C10005527AA27880F991FAA1FA41710F0A41BF5
:100C200083955051B9F7A05DAA3308F0A95DA1934F
:100C3000009779F7B111B1931192CB010C94200672
:100C4000DC01FC01672F71917723E1F7329704C033
:100C50007C916D9370836291AE17BF07C8F30895BE
:040C6000F894FFCF36
:100C640000010204FF00414E474C45203D20000096
:00000001FF
