:100000000C942A000C94BF010C94E6010C940B0292
:100010000C9447000C9447000C9447000C94470044
:100020000C9447000C9447000C9447000C949C02DD
:100030000C9447000C9447000C9447000C94470024
:100040000C9447000C9447000C9447000C94470014
:100050000C94470011241FBECFE5D8E0DEBFCDBF12
:1000600010E0A0E6B0E0E8E4F8E002C005900D92F0
:10007000A436B107D9F720E0A4E6B0E001C01D9294
:10008000A836B207E1F70E949D000C9422040C945C
:1000900000001F93CF93DF93182FC0E0D0E011C072
:1000A000412F50E00C2E02C0559547950A94E2F777
:1000B000FE01E05AFF4F6081417081E00E944601DD
:1000C0002196C430D10564F3DF91CF911F9108953B
:1000D000CF93C82F40E063E080E00E94460141E0FA
:1000E00062E080E00E9446018C2F82958F700E9412
:1000F000490040E062E080E00E9446018FE19EE41A
:100100000197F1F700C0000040E063E080E00E944A
:10011000460141E062E080E00E9446018C2F8F7032
:100120000E94490040E062E080E00E944601CF91D9
:10013000089581E00E94680008950E94BD010E9418
:10014000C10043E067E081E00E94CC0043E064E04E
:1001500080E00E94CC0043E065E080E00E94CC009B
:1001600043E066E080E00E94CC0080E00E94300224
:1001700060E070E08AE794E40E9460020E949900C7
:10018000F7CF80E487B987E086B986B18F7D86B9DD
:1001900086B1806886B90895683008F076C08130ED
:1001A00019F130F08230E1F1833009F454C0089540
:1001B000423061F42AB381E090E002C0880F991FB9
:1001C0006A95E2F7809582238ABB0895433009F04F
:1001D0005CC02AB381E090E002C0880F991F6A9545
:1001E000E2F7822B8ABB0895423061F427B381E0A5
:1001F00090E002C0880F991F6A95E2F780958223EC
:1002000087BB0895433009F040C027B381E090E0F8
:1002100002C0880F991F6A95E2F7822B87BB089569
:10022000423061F424B381E090E002C0880F991F4E
:100230006A95E2F78095822384BB0895433029F5BF
:1002400024B381E090E002C0880F991F6A95E2F71D
:10025000822B84BB0895423061F421B381E090E0A9
:1002600002C0880F991F6A95E2F78095822381BBAF
:100270000895433051F421B381E090E002C0880F2B
:10028000991F6A95E2F7822B81BB0895813019F19D
:1002900030F08230E1F1833009F454C00895411107
:1002A0000CC02BB381E090E002C0880F991F6A95C3
:1002B000E2F7809582238BBB0895413009F05CC042
:1002C0002BB381E090E002C0880F991F6A95E2F796
:1002D000822B8BBB089541110CC028B381E090E0C4
:1002E00002C0880F991F6A95E2F78095822388BB28
:1002F0000895413009F040C028B381E090E002C089
:10030000880F991F6A95E2F7822B88BB08954111E7
:100310000CC025B381E090E002C0880F991F6A9558
:10032000E2F78095822385BB0895413029F525B3F6
:1003300081E090E002C0880F991F6A95E2F7822B56
:1003400085BB089541110CC022B381E090E002C04A
:10035000880F991F6A95E2F78095822382BB0895E2
:10036000413051F422B381E090E002C0880F991F20
:100370006A95E2F7822B82BB0895789408951F92C4
:100380000F920FB60F9211242F933F934F935F93C9
:100390006F937F938F939F93AF93BF93EF93FF934D
:1003A000E0916400F09165000995FF91EF91BF9194
:1003B000AF919F918F917F916F915F914F913F91FD
:1003C0002F910F900FBE0F901F9018951F920F92B4
:1003D0000FB60F9211242F933F934F935F936F9318
:1003E0007F938F939F93AF93BF93EF93FF93E0E03F
:1003F000F0E00995FF91EF91BF91AF919F918F919F
:100400007F916F915F914F913F912F910F900FBE10
:100410000F901F9018951F920F920FB60F921124F4
:100420002F933F934F935F936F937F938F939F93FC
:10043000AF93BF93EF93FF93E0E0F0E00995FF9156
:10044000EF91BF91AF919F918F917F916F915F914C
:100450004F913F912F910F900FBE0F901F901895C5
:1004600093B793BF8130D9F028F0823051F08330B8
:1004700079F0089583B78F7B83BF83B7877F83BF6E
:10048000089583B78F7B83BF83B7886083BF089548
:1004900083B7806483BF83B7886083BF089583B7C1
:1004A000806483BF83B7877F83BF089583B78E7FC0
:1004B00083BF83B78D7F83BF83B7856083BF089574
:1004C000CF92DF92EF92FF920F931F9320E030E0E4
:1004D0004AE754E40E94C3026B017C010E94560269
:1004E00020E034E244E75BE4C701B6010E94B503B3
:1004F00020E030E040E856E30E94B5030E94350357
:100500008B019C0140E050E0BA010AC008B600FE31
:10051000FDCF88B7816088BF4F5F5F4F6F4F7F4FC0
:10052000401751076207730788F31F910F91FF90DF
:10053000EF90DF90CF9008951F920F920FB60F9219
:1005400011242F933F934F935F936F937F938F93D8
:100550009F93AF93BF93EF93FF93E0916600F09169
:1005600067000995FF91EF91BF91AF919F918F9196
:100570007F916F915F914F913F912F910F900FBE9F
:100580000F901F9018950E94D7020C947B030E9435
:10059000740358F00E946D0340F029F45F3F29F086
:1005A0000C94640351110C94AF030C946A030E94E1
:1005B0008C0368F39923B1F3552391F3951B550BE5
:1005C000BB27AA2762177307840738F09F5F5F4F26
:1005D000220F331F441FAA1FA9F335D00E2E3AF065
:1005E000E0E832D091505040E695001CCAF72BD07D
:1005F000FE2F29D0660F771F881FBB1F26173707CE
:100600004807AB07B0E809F0BB0B802DBF01FF27FF
:1006100093585F4F3AF09E3F510578F00C94640375
:100620000C94AF035F3FE4F3983ED4F3869577953F
:100630006795B795F7959F5FC9F7880F911D9695B8
:10064000879597F90895E1E0660F771F881FBB1F14
:10065000621773078407BA0720F0621B730B840BC1
:10066000BA0BEE1F88F7E09508950E94940388F076
:100670009F5798F0B92F9927B751B0F0E1F0660F66
:10068000771F881F991F1AF0BA95C9F714C0B130A7
:1006900091F00E94AE03B1E008950C94AE03672F71
:1006A000782F8827B85F39F0B93FCCF386957795D6
:1006B0006795B395D9F73EF49095809570956195BF
:1006C0007F4F8F4F9F4F089597F99F6780E870E0A5
:1006D00060E008959FEF80EC089500240A941616B8
:1006E000170618060906089500240A941216130620
:1006F000140605060895092E0394000C11F48823AE
:1007000052F0BB0F40F4BF2B11F460FF04C06F5FC9
:100710007F4F8F4F9F4F089557FD9058440F551F9F
:1007200059F05F3F71F04795880F97FB991F61F073
:100730009F3F79F087950895121613061406551FEA
:10074000F2CF4695F1DF08C0161617061806991F56
:10075000F1CF86957105610508940895E894BB274B
:1007600066277727CB0197F908950E94C8030C9458
:100770007B030E946D0338F00E94740320F09523E0
:1007800011F00C9464030C946A0311240C94AF03CD
:100790000E948C0370F3959FC1F3950F50E0551F95
:1007A000629FF001729FBB27F00DB11D639FAA27C6
:1007B000F00DB11DAA1F649F6627B00DA11D661F15
:1007C000829F2227B00DA11D621F739FB00DA11D36
:1007D000621F839FA00D611D221F749F3327A00DF0
:1007E000611D231F849F600D211D822F762F6A2F8C
:1007F00011249F5750409AF0F1F088234AF0EE0FF1
:10080000FF1FBB1F661F771F881F91505040A9F71D
:100810009E3F510580F00C9464030C94AF035F3F3E
:10082000E4F3983ED4F3869577956795B795F79559
:10083000E7959F5FC1F7FE2B880F911D96958795D1
:0808400097F90895F894FFCF29
:0408480000010204A5
:00000001FF
