:100000000C942A000C948D050C94D9050C94B4051D
:100010000C9447000C9447000C9447000C94470044
:100020000C9447000C9447000C9447000C94FD0579
:100030000C9447000C9447000C9447000C94470024
:100040000C9447000C9447000C9447000C94470014
:100050000C94470011241FBECFE5D8E0DEBFCDBF12
:1000600010E0A0E6B0E0ECEDF1E102C005900D92E9
:10007000AA38B107D9F721E0AAE8B0E001C01D9283
:10008000A735B207E1F70E946B040C94EC080C94BE
:1000900000000F930B3219F40E94250612C00D3296
:1000A00019F40E9424060DC00A3219F40E944A086D
:1000B00008C00F3219F40E94960603C060E070E099
:1000C000CB010F9108958B3241F08D3231F08A329D
:1000D00031F08F3221F080E0089581E0089582E0D0
:1000E0000895CF93DF93D62F0E946300C82F8D2FE2
:1000F0000E94630091E0C81708F090E0892FDF911B
:10010000CF9108954F925F926F927F92AF92BF927C
:10011000CF92DF92EF92FF920F931F93CF93DF93D3
:10012000CDB7DEB764970FB6F894DEBF0FBECDBF74
:10013000F09052015C01412C512C320110E0F5018C
:10014000E1905F01EE2009F4C2C000ED0E0D20E049
:1001500030E0A901C301B2010A3010F50E949106F6
:10016000811107C0602F70E080E090E00E944A0794
:1001700014C020E030E040E251E4C301B2010E942B
:100180004A082B013C01602F70E080E090E00E9463
:100190004C07A30192010E9425062B013C01CFCF01
:1001A0000E949106882371F024E0F29EF001112450
:1001B000E657FF4F4082518262827382F394412C52
:1001C000512C320139E2E31237C08F2D90E0FC014F
:1001D000EE0FFF1FEE0FFF1FEA57FF4F2081318107
:1001E00042815381880F991F880F991FFC01EE5798
:1001F000FF4F6081718182819381FE01E10FF11DCA
:1002000000810E9449002FEF210FEEEFEF0D34E047
:10021000E39FF0011124FA94E657FF4F6083718346
:1002200082839383FE01E20FF11D9081983211F0D9
:10023000122FCBCF125083CFC12ED12C88E2E816DB
:1002400061F0112351F0FE01EC0DFD1D00816E2DBA
:10025000802F0E947100882349F0E1E0F0E0EC0F6C
:10026000FD1FEC0DFD1DE0821F5F69CF8F2D90E01B
:10027000FC01EE0FFF1FEE0FFF1FEA57FF4F20811B
:10028000318142815381880F991F880F991FFC018A
:10029000EE57FF4F60817181828193810E944900F6
:1002A000EEEFEF0D24E0E29FF0011124FA94E657FF
:1002B000FF4F60837183828393838FEF810FE1E02F
:1002C000F0E0EC0FFD1FE80FF11DE08238CFF09257
:1002D000520120E030E0A901C301B2010E94910661
:1002E000882371F081E08F0D8093520124E0F29E0B
:1002F000F0011124E657FF4F4082518262827382DF
:1003000080915201F82EF11A8150E82EE11A812FC6
:100310008F0D112359F190E0DE01A10FB11DFC01F9
:10032000EE0FFF1FEE0FFF1FEA57FF4F20813181B5
:1003300042815381880F991F880F991FFC01EE5746
:10034000FF4F60817181828193810C910E944900ED
:100350001150EE2DE10F34E0E39FF0011124E65738
:10036000FF4F6083718382839383D1CFF0925201D8
:1003700084E0F89EF0011124EA57FF4F60817181FB
:100380008281938164960FB6F894DEBF0FBECDBF15
:10039000DF91CF911F910F91FF90EF90DF90CF9061
:1003A000BF90AF907F906F905F904F9008950E94A4
:1003B00044030E942C028FE39CE90197F1F700C0EF
:1003C000000062E080E00E943C038FE39FE1019720
:1003D000F1F700C0000084E690E00E94E9039FEF7F
:1003E00029E688E1915020408040E1F700C00000FC
:1003F0000C946804CF93DF93CDB7DEB7C456D10910
:100400000FB6F894DEBF0FBECDBFCE0101967C01C2
:1004100084E6F70111928A95E9F710E00E94BA028A
:100420008823E1F38D3371F4C7010E9482004B01F0
:100430005C018DE30E94B90342E0C501B4010E9452
:100440001904ECCF01E0010FF701E10FF11D8083EA
:100450000E94B903102FE2CF42E067E083E00E94E0
:10046000720442E066E083E00E94720442E065E0CC
:1004700083E00E94720442E063E083E00E94720421
:1004800043E065E082E00E94720443E064E082E0C1
:100490000E94720443E063E082E00E94720443E041
:1004A00062E082E00E94720441E065E082E00E9426
:1004B000DF0441E064E082E00E94DF0441E063E0A9
:1004C00082E00E94DF0441E062E082E00C94DF04FD
:1004D00067E083E00E94490581110EC08FE39CE92B
:1004E0000197F1F700C0000067E083E00E94490532
:1004F0008823D1F381E0089566E083E00E944905F6
:1005000081110EC08FE39CE90197F1F700C0000054
:1005100066E083E00E9449058823D1F382E00895D4
:1005200065E083E00E94490581110EC08FE39CE9DC
:100530000197F1F700C0000065E083E00E944905E3
:100540008823D1F383E0089563E083E00E944905A6
:1005500081110EC08FE39CE90197F1F700C0000004
:1005600063E083E00E9449058823D1F384E0089585
:1005700080E008950F931F93CF93DF9315E0C0E0C1
:10058000D0E0612F82E00E945D050E946802082F82
:10059000612F82E0002369F00E945D05CC0FDD1F12
:1005A000CC0FDD1FCB58DF4FC00FD11D21978881A5
:1005B00007C00E945D0521961150113011F780E0AF
:1005C000DF91CF911F910F910895EF92FF920F93BA
:1005D0001F93CF93DF9390E6E92E90E0F92EC0E0D1
:1005E000D0E0082F10E0F70161917F01A8010C2EE7
:1005F00002C0559547950A94E2F7417081E00E9448
:10060000DF042196C430D10571F7DF91CF911F919E
:100610000F91FF90EF900895CF93C82F40E063E0D3
:1006200080E00E94DF0441E062E080E00E94DF049D
:100630008C2F82958F700E94E50240E062E080E09E
:100640000E94DF048FE19EE40197F1F700C00000F3
:1006500040E063E080E00E94DF0441E062E080E08F
:100660000E94DF048C2F8F700E94E50240E062E060
:1006700080E0CF910C94DF04E82FF0E0EB57FF4FC0
:100680008081860F0C940C032FEF88EF95E12150A9
:1006900080409040E1F700C0000043E062E080E06D
:1006A0000E94720440E062E080E00E94DF0443E0C8
:1006B00063E080E00E94720443E060E081E00E9419
:1006C000720443E061E081E00E94720443E062E072
:1006D00081E00E94720443E064E081E00E947204C1
:1006E00083E00E940C038FE19EE40197F1F700C0C4
:1006F000000083E00E940C038FE19EE40197F1F774
:1007000000C0000083E00E940C038FE99FE0019786
:10071000F1F700C0000082E00E940C038FE19EE42C
:100720000197F1F700C0000088E20E940C038FE1FE
:100730009EE40197F1F700C0000081E00E940C03E5
:100740008FE19EE40197F1F700C000008FE00E9466
:100750000C038FE19EE40197F1F700C0000086E0F2
:100760000E940C038FE19EE40197F1F700C00000A6
:100770000895CF93C82F41E063E080E00E94DF043A
:1007800041E062E080E00E94DF048C2F82958F7050
:100790000E94E50240E062E080E00E94DF048FE119
:1007A0009EE40197F1F700C0000041E063E080E0C3
:1007B0000E94DF0441E062E080E00E94DF048C2FB1
:1007C0008F700E94E50240E062E080E0CF910C94DF
:1007D000DF04CF93DF93EC018991882349F00E94D5
:1007E000B9038FE19EE40197F1F700C00000F4CF58
:1007F000DF91CF910895CF93DF93CDB7DEB72A97DE
:100800000FB6F894DEBF0FBECDBF4AE0BE016F5FEA
:100810007F4FC9010E94B708CE0101960E94E903EB
:100820002A960FB6F894DEBF0FBECDBFDF91CF91F1
:1008300008957F928F929F92AF92BF92CF92DF9254
:10084000EF92FF920F931F93CF93DF936B017C0185
:10085000C42F0E940807722E832E942EA52EB62E2A
:10086000072F182FD92F0E94FB038EE20E94B90395
:10087000272D382D492D5A2D6B2D702F812F9D2F0F
:100880000E9444079B01AC01C701B6010E942406E7
:1008900000E010E0D0E00C171D074CF420E030E041
:1008A00040E251E40E944A080F5F1F4FF4CF0E94BC
:1008B0000807DF91CF911F910F91FF90EF90DF908C
:1008C000CF90BF90AF909F908F907F900C94FB0340
:1008D00081E00C940C030E94D7010E94FA0180E091
:1008E00090E00895683008F069C0813001F130F07F
:1008F0008230A9F1833009F44AC00895423051F49E
:100900002AB381E090E001C0880F6A95EAF78095EC
:1009100082230BC0433009F051C02AB381E090E03C
:1009200001C0880F6A95EAF7822B8ABB089542308E
:1009300051F427B381E090E001C0880F6A95EAF78F
:10094000809582230AC04330C9F527B381E090E047
:1009500001C0880F6A95EAF7822B87BB0895423061
:1009600051F424B381E090E001C0880F6A95EAF762
:10097000809582230AC0433009F524B381E090E0DA
:1009800001C0880F6A95EAF7822B84BB0895423034
:1009900051F421B381E090E001C0880F6A95EAF735
:1009A000809582230AC0433049F421B381E090E06E
:1009B00001C0880F6A95EAF7822B81BB08958130C8
:1009C00001F130F08230A9F1833009F44AC0089572
:1009D00041110AC02BB381E090E001C0880F6A95F5
:1009E000EAF7809582230BC0413009F051C02BB348
:1009F00081E090E001C0880F6A95EAF7822B8BBBFB
:100A0000089541110AC028B381E090E001C0880F29
:100A10006A95EAF7809582230AC04130C9F528B368
:100A200081E090E001C0880F6A95EAF7822B88BBCD
:100A3000089541110AC025B381E090E001C0880FFC
:100A40006A95EAF7809582230AC0413009F525B3FB
:100A500081E090E001C0880F6A95EAF7822B85BBA0
:100A6000089541110AC022B381E090E001C0880FCF
:100A70006A95EAF7809582230AC0413049F422B38F
:100A800081E090E001C0880F6A95EAF7822B82BB73
:100A90000895813039F020F0833069F480B303C0C9
:100AA00089B301C086B390E002C0959587956A9599
:100AB000E2F78170089580E00895813081F028F098
:100AC0008230B9F08330F9F008952BB381E090E0E3
:100AD00001C0880F6A95EAF782278BBB089528B377
:100AE00081E090E001C0880F6A95EAF7822788BB11
:100AF000089525B381E090E001C0880F6A95EAF778
:100B0000822785BB089522B381E090E001C0880F61
:100B10006A95EAF7822782BB08951F920F920FB65B
:100B20000F9211242F933F934F935F936F937F9373
:100B30008F939F93AF93BF93EF93FF93E0915301F4
:100B4000F09154010995FF91EF91BF91AF919F9161
:100B50008F917F916F915F914F913F912F910F9066
:100B60000FBE0F901F9018951F920F920FB60F9205
:100B700011242F933F934F935F936F937F938F93A2
:100B80009F93AF93BF93EF93FF93E0E0F0E009955D
:100B9000FF91EF91BF91AF919F918F917F916F9155
:100BA0005F914F913F912F910F900FBE0F901F902B
:100BB00018951F920F920FB60F9211242F933F9307
:100BC0004F935F936F937F938F939F93AF93BF9355
:100BD000EF93FF930E94B405FF91EF91BF91AF9106
:100BE0009F918F917F916F915F914F913F912F9145
:100BF0000F900FBE0F901F9018951F920F920FB677
:100C00000F9211242F933F934F935F936F937F9392
:100C10008F939F93AF93BF93EF93FF93E091550111
:100C2000F09156010995FF91EF91BF91AF919F917E
:100C30008F917F916F915F914F913F912F910F9085
:100C40000FBE0F901F9018955058BB27AA270E94DF
:100C50003C060C9410080E94020838F00E94090813
:100C600020F039F49F3F19F426F40C94EF070EF4AA
:100C7000E095E7FB0C94E907E92F0E94210858F35F
:100C8000BA17620773078407950720F079F4A6F571
:100C90000C9443080EF4E0950B2EBA2FA02D0B01F7
:100CA000B90190010C01CA01A0011124FF27591BB1
:100CB00099F0593F50F4503E68F11A16F040A22FB7
:100CC000232F342F4427585FF3CF46953795279528
:100CD000A795F0405395C9F77EF41F16BA0B620B27
:100CE000730B840BBAF09150A1F0FF0FBB1F661F6E
:100CF000771F881FC2F70EC0BA0F621F731F841FB1
:100D000048F4879577956795B795F7959E3F08F0D6
:100D1000B0CF9395880F08F09927EE0F9795879598
:100D200008950E94C50708F481E008950E94AA066C
:100D30000C9410080E94090858F00E94020840F024
:100D400029F45F3F29F00C94E90751110C944408F1
:100D50000C94EF070E94210868F39923B1F35523FF
:100D600091F3951B550BBB27AA27621773078407BE
:100D700038F09F5F5F4F220F331F441FAA1FA9F354
:100D800035D00E2E3AF0E0E832D091505040E69542
:100D9000001CCAF72BD0FE2F29D0660F771F881FA3
:100DA000BB1F261737074807AB07B0E809F0BB0B96
:100DB000802DBF01FF2793585F4F3AF09E3F5105AA
:100DC00078F00C94E9070C9444085F3FE4F3983EF4
:100DD000D4F3869577956795B795F7959F5FC9F793
:100DE000880F911D9695879597F90895E1E0660F14
:100DF000771F881FBB1F621773078407BA0720F08D
:100E0000621B730B840BBA0BEE1F88F7E0950895F5
:100E1000BEE304D008F490E80895BFE32227332707
:100E2000A9010E94290860F19F5748F1B91740F1C4
:100E3000BFE3B91B9927B8503AF4660F771F881F94
:100E4000991FB395D2F316C0B8504AF0232F342F10
:100E5000452F562F672F782F8827B850BAF7B85FDD
:100E600049F08695779567955795479537952795D6
:100E7000BA95B9F716F40E94F207889408958894F9
:100E800060E070E0CB01089597FB16F40E94F20732
:100E90000C948807E89409C097FB3EF490958095E0
:100EA000709561957F4F8F4F9F4F9923A9F0F92F30
:100EB00096E9BB279395F695879577956795B795AE
:100EC000F111F8CFFAF4BB0F11F460FF1BC06F5F94
:100ED0007F4F8F4F9F4F16C0882311F096E911C0A6
:100EE000772321F09EE8872F762F05C0662371F0C7
:100EF00096E8862F70E060E02AF09A95660F771FDB
:100F0000881FDAF7880F9695879597F90895E894E2
:100F1000F92F96EBFF2381F0121613061406440BEB
:100F20009395F69587957795679557954040FF235C
:100F3000B9F71BC099270895882351F49850D2F728
:100F4000872B762F652F542F432F322F20E0B1F3BC
:100F5000121613061406440B88233AF09A95440F90
:100F6000551F661F771F881FCAF755234AF4440F81
:100F7000551F11F460FF04C06F5F7F4F8F4F9F4F6D
:100F8000880F9695879597F90895990F0008550F42
:100F9000AA0BE0E8FEEF16161706E807F907C0F0FF
:100FA00012161306E407F50798F0621B730B840B07
:100FB000950B39F40A2661F0232B242B252B21F4E1
:100FC00008950A2609F4A140A6958FEF811D811D81
:100FD000089597F99F6780E870E060E008959FEFBB
:100FE00080EC08959095809570956095509540950A
:100FF000309521953F4F4F4F5F4F6F4F7F4F8F4F32
:101000009F4F089500240A9416161706180609061D
:10101000089500240A94121613061406050608956E
:10102000092E0394000C11F4882352F0BB0F40F4F6
:10103000BF2B11F460FF04C06F5F7F4F8F4F9F4F36
:10104000089557FD9058440F551F59F05F3F71F0B8
:101050004795880F97FB991F61F09F3F79F087951F
:101060000895121613061406551FF2CF4695F1DFA8
:1010700008C0161617061806991FF1CF8695710538
:10108000610508940895E894BB2766277727CB016C
:1010900097F908950E945D080C9410080E940208B8
:1010A00038F00E94090820F0952311F00C94E9070C
:1010B0000C94EF0711240C9444080E94210870F34B
:1010C000959FC1F3950F50E0551F629FF001729FED
:1010D000BB27F00DB11D639FAA27F00DB11DAA1FFC
:1010E000649F6627B00DA11D661F829F2227B00D49
:1010F000A11D621F739FB00DA11D621F839FA00DD4
:10110000611D221F749F3327A00D611D231F849F23
:10111000600D211D822F762F6A2F11249F5750407A
:101120009AF0F1F088234AF0EE0FFF1FBB1F661FF5
:10113000771F881F91505040A9F79E3F510580F0BE
:101140000C94E9070C9444085F3FE4F3983ED4F311
:10115000869577956795B795F795E7959F5FC1F762
:10116000FE2B880F911D9695879597F90895BB27BB
:101170004A3031F4992322F4BDE2909581959F4F36
:101180000C94C308BB27FB015527AA27880F991F7A
:10119000AA1FA41710F0A41B83955051B9F7A05DA6
:1011A000AA3308F0A95DA193009779F7B111B19323
:1011B0001192CB010C94DC08DC01FC01672F7191CA
:1011C0007723E1F7329704C07C916D93708362912D
:0C11D000AE17BF07C8F30895F894FFCFD6
:1011DC000001020448656C6C6F2043616C63756C94
:1011EC0061746F72003132332B3435362D37383011
:0A11FC002A283D292F80C094D4005A
:00000001FF
