:100000000C942A000C94BB020C9407030C94E2029B
:100010000C9447000C9447000C9447000C94470044
:100020000C9447000C9447000C9447000C94600318
:100030000C9447000C9447000C9447000C94470024
:100040000C9447000C9447000C9447000C94470014
:100050000C94470011241FBECFE5D8E0DEBFCDBF12
:1000600010E0A0E6B0E0E8EBF9E002C005900D92E8
:10007000A636B107D9F720E0A6E6B0E001C01D9290
:10008000AB36B207E1F70E9498010C94DA040C94A5
:10009000000080E090E0209160003091610028171E
:1000A000390740F0EFE9FFE03197F1F700C00000B9
:1000B0000196F1CF08950E9420010E94A20180E0E4
:1000C0000E942B031092660043E060E082E00E94F1
:1000D000B40143E061E082E00E94B40143E062E0E9
:1000E00082E00E94B40143E063E082E00E94B40138
:1000F0000C9453038093660008958436910548F468
:1001000024E630E0A901481B590B5093610040934D
:1001100060000895C0E080E00E94A901BC0180E079
:1001200090E00E94BB032DE032E348EC5DE30E94C7
:100130006D046B017C010E948C03CB010E947D0049
:1001400020E030E0A901C701B6010E9487038111B8
:100150000AC02FEF89E698E1215080409040E1F7F6
:1001600000C0000013C080916600811103C0CF5F02
:10017000C37006C0813021F4C150C43008F0C3E020
:100180006C2F82E00E948B020E9449000E94950120
:10019000C2CFEF92FF920F931F93CF93DF9392E61C
:1001A000E92E90E0F92EC0E0D0E0082F10E0F70132
:1001B00061917F01A8010C2E02C0559547950A94C4
:1001C000E2F7417081E00E9421022196C430D105FE
:1001D00071F7DF91CF911F910F91FF90EF900895EC
:1001E000CF93C82F40E063E080E00E94210241E00D
:1001F00062E080E00E9421028C2F82958F700E9425
:10020000C90040E062E080E00E9421028FE19EE4AC
:100210000197F1F700C0000040E063E080E00E9439
:10022000210241E062E080E00E9421028C2F8F7069
:100230000E94C90040E062E080E0CF910C9421026E
:100240002FEF88EF95E1215080409040E1F700C00A
:10025000000043E062E080E00E94B40140E062E020
:1002600080E00E94210243E063E080E00E94B4014C
:1002700043E060E081E00E94B40143E061E081E09E
:100280000E94B40143E062E081E00E94B40143E0D7
:1002900064E081E00E94B40183E00E94F0008FE1FD
:1002A0009EE40197F1F700C0000083E00E94F00097
:1002B0008FE19EE40197F1F700C0000083E00E9407
:1002C000F0008FE99FE00197F1F700C0000082E0A5
:1002D0000E94F0008FE19EE40197F1F700C000005A
:1002E00088E20E94F0008FE19EE40197F1F700C0E0
:1002F000000081E00E94F0008FE19EE40197F1F799
:1003000000C000008FE00E94F0008FE19EE40197A2
:10031000F1F700C0000086E00E94F0008FE19EE44B
:100320000197F1F700C00000089581E00C94F000FF
:100330000E945B0081E00E947A000E948A0080E0B7
:1003400090E0089580E487B987E086B93598379AB8
:10035000089597B1907E892B87B9369A349BFECF4A
:1003600084B195B193700895683008F069C0813008
:1003700001F130F08230A9F1833009F44AC00895C8
:10038000423051F42AB381E090E001C0880F6A95B1
:10039000EAF7809582230BC0433009F051C02AB39D
:1003A00081E090E001C0880F6A95EAF7822B8ABB52
:1003B0000895423051F427B381E090E001C0880FE6
:1003C0006A95EAF7809582230AC04330C9F527B3BE
:1003D00081E090E001C0880F6A95EAF7822B87BB25
:1003E0000895423051F424B381E090E001C0880FB9
:1003F0006A95EAF7809582230AC0433009F524B351
:1004000081E090E001C0880F6A95EAF7822B84BBF7
:100410000895423051F421B381E090E001C0880F8B
:100420006A95EAF7809582230AC0433049F421B3E4
:1004300081E090E001C0880F6A95EAF7822B81BBCA
:100440000895813001F130F08230A9F1833009F450
:100450004AC0089541110AC02BB381E090E001C069
:10046000880F6A95EAF7809582230BC0413009F026
:1004700051C02BB381E090E001C0880F6A95EAF784
:10048000822B8BBB089541110AC028B381E090E014
:1004900001C0880F6A95EAF7809582230AC041302F
:1004A000C9F528B381E090E001C0880F6A95EAF7AA
:1004B000822B88BB089541110AC025B381E090E0EA
:1004C00001C0880F6A95EAF7809582230AC04130FF
:1004D00009F525B381E090E001C0880F6A95EAF73D
:1004E000822B85BB089541110AC022B381E090E0C0
:1004F00001C0880F6A95EAF7809582230AC04130CF
:1005000049F422B381E090E001C0880F6A95EAF7D0
:10051000822B82BB0895813081F028F08230B9F0BF
:100520008330F9F008952BB381E090E001C0880F8B
:100530006A95EAF782278BBB089528B381E090E0A3
:1005400001C0880F6A95EAF7822788BB089525B312
:1005500081E090E001C0880F6A95EAF7822785BBA9
:10056000089522B381E090E001C0880F6A95EAF710
:10057000822782BB08951F920F920FB60F9211240B
:100580002F933F934F935F936F937F938F939F939B
:10059000AF93BF93EF93FF93E0916700F0916800F2
:1005A0000995FF91EF91BF91AF919F918F917F91AD
:1005B0006F915F914F913F912F910F900FBE0F90D0
:1005C0001F9018951F920F920FB60F9211242F9320
:1005D0003F934F935F936F937F938F939F93AF93CB
:1005E000BF93EF93FF93E0E0F0E00995FF91EF9167
:1005F000BF91AF919F918F917F916F915F914F913B
:100600003F912F910F900FBE0F901F9018951F9242
:100610000F920FB60F9211242F933F934F935F9336
:100620006F937F938F939F93AF93BF93EF93FF93BA
:100630000E94E202FF91EF91BF91AF919F918F9144
:100640007F916F915F914F913F912F910F900FBECE
:100650000F901F90189593B7906293BF8130B9F0B7
:1006600028F0823031F0833039F0089583B78F7BE2
:1006700015C083B78F7B07C043E063E081E00E9431
:10068000B40183B7806483BF83B788600AC043E046
:1006900063E081E00E94B40183B7806483BF83B7C5
:1006A000877F83BF089583B78E7F83BF83B78D7F96
:1006B00083BF83B78B7F83BF83B7816083BF089578
:1006C0001F920F920FB60F9211242F933F934F93C7
:1006D0005F936F937F938F939F93AF93BF93EF93AA
:1006E000FF93E0916900F0916A000995FF91EF9105
:1006F000BF91AF919F918F917F916F915F914F913A
:100700003F912F910F900FBE0F901F9018950E9450
:10071000F80308F481E008950E944C0488F09F5784
:1007200098F0B92F9927B751B0F0E1F0660F771F15
:10073000881F991F1AF0BA95C9F714C0B13091F00B
:100740000E946604B1E008950C946604672F782F28
:100750008827B85F39F0B93FCCF3869577956795D0
:10076000B395D9F73EF490958095709561957F4F3C
:100770008F4F9F4F0895E89409C097FB3EF49095E2
:100780008095709561957F4F8F4F9F4F9923A9F06A
:10079000F92F96E9BB279395F695879577956795F9
:1007A000B795F111F8CFFAF4BB0F11F460FF1BC03D
:1007B0006F5F7F4F8F4F9F4F16C0882311F096E9D0
:1007C00011C0772321F09EE8872F762F05C066237E
:1007D00071F096E8862F70E060E02AF09A95660F37
:1007E000771F881FDAF7880F9695879597F90895F0
:1007F000990F0008550FAA0BE0E8FEEF1616170632
:10080000E807F907C0F012161306E407F50798F099
:10081000621B730B840B950B39F40A2661F0232BB2
:10082000242B252B21F408950A2609F4A140A6952E
:100830008FEF811D811D089597F99F6780E870E013
:1008400060E008959FEF80EC089500240A94161646
:10085000170618060906089500240A9412161306AE
:10086000140605060895092E0394000C11F488233C
:1008700052F0BB0F40F4BF2B11F460FF04C06F5F58
:100880007F4F8F4F9F4F089557FD9058440F551F2E
:1008900059F05F3F71F04795880F97FB991F61F002
:1008A0009F3F79F087950895121613061406551F79
:1008B000F2CF4695F1DF08C0161617061806991FE5
:1008C000F1CF86957105610508940895E894BB27DA
:1008D00066277727CB0197F908950E9480040C942E
:1008E00033040E94250438F00E942C0420F0952344
:1008F00011F00C941C040C94220411240C94670431
:100900000E94440470F3959FC1F3950F50E0551F6A
:10091000629FF001729FBB27F00DB11D639FAA2754
:10092000F00DB11DAA1F649F6627B00DA11D661FA3
:10093000829F2227B00DA11D621F739FB00DA11DC4
:10094000621F839FA00D611D221F749F3327A00D7E
:10095000611D231F849F600D211D822F762F6A2F1A
:1009600011249F5750409AF0F1F088234AF0EE0F7F
:10097000FF1FBB1F661F771F881F91505040A9F7AC
:100980009E3F510580F00C941C040C9467045F3F5B
:10099000E4F3983ED4F3869577956795B795F795E8
:1009A000E7959F5FC1F7FE2B880F911D9695879560
:0809B00097F90895F894FFCFB8
:0609B80001000001020431
:00000001FF
