:100000000C942A000C949D020C94E9020C94C402F6
:100010000C9447000C9447000C9447000C94470044
:100020000C9447000C9447000C9447000C94580320
:100030000C9447000C9447000C9447000C94470024
:100040000C9447000C9447000C9447000C94470014
:100050000C94470011241FBECFE5D8E0DEBFCDBF12
:1000600010E0A0E6B0E0ECE3FBE002C005900D92EA
:10007000A436B107D9F720E0A4E6B0E001C01D9294
:10008000A836B207E1F70E94AD010C949C050C94D0
:1000900000000E94D5000E94B40183E00E940D037D
:1000A00043E063E081E00E94C6010C94350380E0E8
:1000B0000E94BB01BC0180E090E00E945C042DE046
:1000C00032E348EC5DE30E94FA046B017C010E947C
:1000D0002D04862F0E944203C701B6010E94F1033E
:1000E0000E948C012FEF81EE94E0215080409040DF
:1000F000E1F700C000000E94AA01D9CFEF92FF9261
:100100000F931F93CF93DF9390E6E92E90E0F92EA3
:10011000C0E0D0E0082F10E0F70161917F01A80155
:100120000C2E02C0559547950A94E2F7417081E084
:100130000E9433022196C430D10571F7DF91CF912F
:100140001F910F91FF90EF900895CF93C82F40E03B
:1001500063E080E00E94330241E062E080E00E94C0
:1001600033028C2F82958F700E947E0040E062E007
:1001700080E00E9433028FE19EE40197F1F700C016
:10018000000040E063E080E00E94330241E062E072
:1001900080E00E9433028C2F8F700E947E0040E02E
:1001A00062E080E0CF910C9433022FEF88EF95E16D
:1001B000215080409040E1F700C0000043E062E041
:1001C00080E00E94C60140E062E080E00E943302CD
:1001D00043E063E080E00E94C60143E060E081E02C
:1001E0000E94C60143E061E081E00E94C60143E055
:1001F00062E081E00E94C60143E064E081E00E9489
:10020000C60183E00E94A5008FE19EE40197F1F70B
:1002100000C0000083E00E94A5008FE19EE40197EA
:10022000F1F700C0000083E00E94A5008FE99FE085
:100230000197F1F700C0000082E00E94A5008FE165
:100240009EE40197F1F700C0000088E20E94A5003B
:100250008FE19EE40197F1F700C0000081E00E9469
:10026000A5008FE19EE40197F1F700C000008FE048
:100270000E94A5008FE19EE40197F1F700C0000005
:1002800086E00E94A5008FE19EE40197F1F700C08F
:1002900000000895CF93C82F41E063E080E00E9402
:1002A000330241E062E080E00E9433028C2F8295AD
:1002B0008F700E947E0040E062E080E00E94330286
:1002C0008FE19EE40197F1F700C0000041E063E098
:1002D00080E00E94330241E062E080E00E9433024D
:1002E0008C2F8F700E947E0040E062E080E0CF9112
:1002F0000C943302CF93DF93EC018991882349F06A
:100300000E944A018FE19EE40197F1F700C00000CE
:10031000F4CFDF91CF910895CF93DF93CDB7DEB7C0
:100320002A970FB6F894DEBF0FBECDBF4AE0BE01DC
:100330006F5F7F4FC9010E946705CE0101960E9441
:100340007A012A960FB6F894DEBF0FBECDBFDF91BB
:10035000CF91089581E00C94A5000E9449000E946D
:10036000570080E090E0089580E487B987E086B97F
:100370003598379A089597B1907E892B87B9369A28
:10038000349BFECF84B195B193700895683008F026
:1003900069C0813001F130F08230A9F1833009F475
:1003A0004AC00895423051F42AB381E090E001C080
:1003B000880F6A95EAF7809582230BC0433009F0D5
:1003C00051C02AB381E090E001C0880F6A95EAF736
:1003D000822B8ABB0895423051F427B381E090E02C
:1003E00001C0880F6A95EAF7809582230AC04330DE
:1003F000C9F527B381E090E001C0880F6A95EAF75C
:10040000822B87BB0895423051F424B381E090E001
:1004100001C0880F6A95EAF7809582230AC04330AD
:1004200009F524B381E090E001C0880F6A95EAF7EE
:10043000822B84BB0895423051F421B381E090E0D7
:1004400001C0880F6A95EAF7809582230AC043307D
:1004500049F421B381E090E001C0880F6A95EAF782
:10046000822B81BB0895813001F130F08230A9F1F7
:10047000833009F44AC0089541110AC02BB381E0CA
:1004800090E001C0880F6A95EAF7809582230BC03F
:10049000413009F051C02BB381E090E001C0880FDA
:1004A0006A95EAF7822B8BBB089541110AC028B3E5
:1004B00081E090E001C0880F6A95EAF78095822379
:1004C0000AC04130C9F528B381E090E001C0880F2F
:1004D0006A95EAF7822B88BB089541110AC025B3BB
:1004E00081E090E001C0880F6A95EAF78095822349
:1004F0000AC0413009F525B381E090E001C0880FC2
:100500006A95EAF7822B85BB089541110AC022B390
:1005100081E090E001C0880F6A95EAF78095822318
:100520000AC0413049F422B381E090E001C0880F55
:100530006A95EAF7822B82BB08951F920F920FB63D
:100540000F9211242F933F934F935F936F937F9359
:100550008F939F93AF93BF93EF93FF93E0916400CA
:10056000F09165000995FF91EF91BF91AF919F9137
:100570008F917F916F915F914F913F912F910F904C
:100580000FBE0F901F9018951F920F920FB60F92EB
:1005900011242F933F934F935F936F937F938F9388
:1005A0009F93AF93BF93EF93FF93E0E0F0E0099543
:1005B000FF91EF91BF91AF919F918F917F916F913B
:1005C0005F914F913F912F910F900FBE0F901F9011
:1005D00018951F920F920FB60F9211242F933F93ED
:1005E0004F935F936F937F938F939F93AF93BF933B
:1005F000EF93FF930E94C402FF91EF91BF91AF91DF
:100600009F918F917F916F915F914F913F912F912A
:100610000F900FBE0F901F90189593B7906293BFE5
:100620008130B9F028F0823031F0833039F008950C
:1006300083B78F7B15C083B78F7B07C043E063E030
:1006400081E00E94C60183B7806483BF83B788605E
:100650000AC043E063E081E00E94C60183B7806482
:1006600083BF83B7877F83BF089583B78E7F83BFA0
:1006700083B78D7F83BF83B78B7F83BF83B7816051
:1006800083BF0895682F70E080E090E00E945C04D2
:1006900020E030E048EC52E40E947F0320E030E0AC
:1006A0004FE753E40E94FA040E942D046CBF0895A2
:1006B0001F920F920FB60F9211242F933F934F93D7
:1006C0005F936F937F938F939F93AF93BF93EF93BA
:1006D000FF93E0916600F09167000995FF91EF911B
:1006E000BF91AF919F918F917F916F915F914F914A
:1006F0003F912F910F900FBE0F901F9018950E9461
:1007000093030C94C0040E94B90458F00E94B204F0
:1007100040F029F45F3F29F00C94990451110C9496
:10072000F4040C949F040E94D10468F39923B1F35C
:10073000552391F3951B550BBB27AA276217730707
:10074000840738F09F5F5F4F220F331F441FAA1F9B
:10075000A9F335D00E2E3AF0E0E832D09150504057
:10076000E695001CCAF72BD0FE2F29D0660F771F05
:10077000881FBB1F261737074807AB07B0E809F0EB
:10078000BB0B802DBF01FF2793585F4F3AF09E3F70
:10079000510578F00C9499040C94F4045F3FE4F351
:1007A000983ED4F3869577956795B795F7959F5FB3
:1007B000C9F7880F911D9695879597F90895E1E0FF
:1007C000660F771F881FBB1F621773078407BA075E
:1007D00020F0621B730B840BBA0BEE1F88F7E095B9
:1007E0000895BEE304D008F490E80895BFE32227FB
:1007F0003327A9010E94D90460F19F5748F1B91726
:1008000040F1BFE3B91B9927B8503AF4660F771F40
:10081000881F991FB395D2F316C0B8504AF0232F02
:10082000342F452F562F672F782F8827B850BAF7C7
:10083000B85F49F0869577956795579547953795B1
:100840002795BA95B9F716F40E94A20488940895E2
:10085000889460E070E0CB0108950E94D90488F08C
:100860009F5798F0B92F9927B751B0F0E1F0660F74
:10087000771F881F991F1AF0BA95C9F714C0B130B5
:1008800091F00E94F304B1E008950C94F304672FF3
:10089000782F8827B85F39F0B93FCCF386957795E4
:1008A0006795B395D9F73EF49095809570956195CD
:1008B0007F4F8F4F9F4F0895E89409C097FB3EF4F8
:1008C00090958095709561957F4F8F4F9F4F99239D
:1008D000A9F0F92F96E9BB279395F695879577951B
:1008E0006795B795F111F8CFFAF4BB0F11F460FFDB
:1008F0001BC06F5F7F4F8F4F9F4F16C0882311F033
:1009000096E911C0772321F09EE8872F762F05C046
:10091000662371F096E8862F70E060E02AF09A95E1
:10092000660F771F881FDAF7880F9695879597F9D6
:10093000089597F99F6780E870E060E008959FEF61
:1009400080EC0895909580957095609550954095B0
:10095000309521953F4F4F4F5F4F6F4F7F4F8F4FD8
:100960009F4F089500240A941616170618060906C4
:10097000089500240A941216130614060506089515
:10098000092E0394000C11F4882352F0BB0F40F49D
:10099000BF2B11F460FF04C06F5F7F4F8F4F9F4FDD
:1009A000089557FD9058440F551F59F05F3F71F05F
:1009B0004795880F97FB991F61F09F3F79F08795C6
:1009C0000895121613061406551FF2CF4695F1DF4F
:1009D00008C0161617061806991FF1CF86957105DF
:1009E000610508940895E894BB2766277727CB0113
:1009F00097F908950E940D050C94C0040E94B2045A
:100A000038F00E94B90420F0952311F00C94990459
:100A10000C949F0411240C94F4040E94D10470F3EC
:100A2000959FC1F3950F50E0551F629FF001729F93
:100A3000BB27F00DB11D639FAA27F00DB11DAA1FA2
:100A4000649F6627B00DA11D661F829F2227B00DEF
:100A5000A11D621F739FB00DA11D621F839FA00D7A
:100A6000611D221F749F3327A00D611D231F849FCA
:100A7000600D211D822F762F6A2F11249F57504021
:100A80009AF0F1F088234AF0EE0FFF1FBB1F661F9C
:100A9000771F881F91505040A9F79E3F510580F065
:100AA0000C9499040C94F4045F3FE4F3983ED4F35F
:100AB000869577956795B795F795E7959F5FC1F709
:100AC000FE2B880F911D9695879597F90895BB2762
:100AD0004A3031F4992322F4BDE2909581959F4FDD
:100AE0000C947305BB27FB015527AA27880F991F74
:100AF000AA1FA41710F0A41B83955051B9F7A05D4D
:100B0000AA3308F0A95DA193009779F7B111B193C9
:100B10001192CB010C948C05DC01FC01672F7191C3
:100B20007723E1F7329704C07C916D9370836291D3
:0C0B3000AE17BF07C8F30895F894FFCF7C
:040B3C0000010204AE
:00000001FF
